:020000040000FA
:1000000010350020050500000D0500000F0500005B
:100010001105000013050000150500000000000098
:1000200000000000000000000000000017050000B4
:1000300019050000000000001B0500001D05000060
:100040004D0700001F050000610A00001F050000A9
:100050001F0500001F0500004D0500001F050000E2
:100060001F0500001F0500001F0500001F05000000
:100070001F0500001F0500001F0500001F050000F0
:100080001F050000E10700001F0500001F0500001C
:10009000150800001F0500001F0500001F050000D7
:1000A0001F0500001F0500001F0500001F050000C0
:1000B000A50700001F050000000000000000000070
:1000C0001F050000B9070000CD0700001F05000054
:1000D0001F0500001F0500001F05000000000000B4
:1000E0000000000000000000000000000000000010
:1000F0000000000000000000000000000000000000
:1001000000000000000000000000000000000000EF
:1001100000000000000000000000000000000000DF
:10040000DFF80CD000F090F80048004769100000B9
:1004100010350020401E00BF00BF00BF00BF00BF5E
:1004200000BF00BF00BF00BF00BF00BF00BF00BFD4
:1004300000BF00BF00BF00BF00BF00BF00BF00BFC4
:1004400000BF00BF00BF00BF00BF00BF00BF00BFB4
:1004500000BF00BF00BF00BF00BF00BF00BF00BFA4
:1004600000BF00BF00BF00BF00BF00BF00BF00BF94
:1004700000BF00BF00BF00BF00BF00BF00BF00BF84
:1004800000BF00BF00BFC5D170470000401E00BFC5
:1004900000BF00BF00BF00BF00BF00BF00BF00BF64
:1004A00000BF00BF00BF00BF00BF00BF00BF00BF54
:1004B00000BF00BF00BF00BF00BF00BF00BF00BF44
:1004C00000BF00BF00BF00BF00BF00BF00BF00BF34
:1004D00000BF00BF00BF00BF00BF00BF00BF00BF24
:1004E00000BF00BF00BF00BF00BF00BF00BF00BF14
:1004F00000BF00BF00BF00BF00BF00BF00BFC5D12D
:10050000704700000648804706480047FEE7FEE7C0
:10051000FEE7FEE7FEE7FEE7FEE7FEE7FEE7FEE7B3
:100520002D08000001040000064C074D06E0E068BD
:1005300040F0010394E8070098471034AC42F6D32A
:10054000FFF762FF0C1A00002C1A00002DE9F04F93
:1005500087B00027BA464FF480700690012500242A
:1005600012E0069800F0EAFE40B100BF6048006863
:10057000284018B1069800F0D3FE2F436D0006986E
:10058000001D80B20690641C082CEAD34FF4BE70A4
:1005900000F0D4FE48B14FF4BE7000F0C1FE47F049
:1005A000004700BF534800688246F8B2F8B1012501
:1005B00000241AE005EA0700A8B100BF4E4850F831
:1005C0002400C0F30420064600BF4B4850F8240026
:1005D000C0F301408046204600F08EFA8146414635
:1005E0003046C84700BF6D00641C082CE2D307F0FA
:1005F0000040002879D04FF0000B00200590401EED
:10060000049000BF4FF0000B002457E03B48005D12
:100610000390039820F0C00638480057401C00287B
:100620004BD00120B04004990840002845D00398E1
:100630004FEA9019304600F067FA804600F05CFA05
:100640000290029810B9B9F1030F35D1012000FAD8
:1006500006F5B9F1030F02D105982843059000BFB4
:10066000274850F82600C0F3014800BF05EA0A00F9
:1006700010B1B8F1020F05D005EA0A00D8B9B8F1F7
:10068000030F18D1B9F1030F0FD1B8F1020F01D147
:10069000032000E0022001903046019900F028FE7E
:1006A0000BF1010000F0FF0B00BF029818B14946A2
:1006B0003046029A904700BF00BF641C042CA5D3AB
:1006C000BBF1000F0DD000BF0A490968084650452C
:1006D00003D14FF0000B03E007E082460599049137
:1006E00000BFBBF1000F8DD100BF07B0BDE8F08F98
:1006F000046300401005005010650040CC14002039
:100700000007005000F01F0201219140024A4309F6
:1007100042F823107047000080E200E000F01F0262
:10072000012191404209920002F1E022C2F8001139
:100730007047000000F01F0201219140024A430966
:1007400042F823107047000000E200E010B54FF4BB
:10075000807000F0C1FC70B14FF4807000F0C5FCF7
:10076000012000F0CBFC01200D49487200210C480B
:10077000001D00F0CFF94FF4827000F0ADFC70B1B5
:100780004FF4827000F0B1FC022000F0B7FC0120B1
:100790000349887201210248103000F0BBF910BDF6
:1007A0006814002010B50249024800F037FB10BD64
:1007B000D414002000C0014010B50249024800F0E6
:1007C0002DFB10BDDC1400200010024010B50249C2
:1007D000024800F023FB10BDE4140020002002407A
:1007E00010B500200949086000210948C0F84411EB
:1007F000C0F84811C0F84C1100200549C1F80001AB
:1008000002493C39086000F037FF10BD401101403B
:100810000010014010B500F095FE10BD01480249DE
:10082000086070470090D0032400002010B500F04D
:10083000FDF910B17D487E49486700F00FFA28B1F4
:100840007C480068C0F342307B49086000F030FA11
:1008500028B17A48006820F080707849086000F07C
:100860003FFA48B10020764908604FF08041C1F856
:1008700010017149091F086000F05CFA18B10320EB
:100880006D496431086000F06DFA68B105206D496A
:10089000086001206B4978310860002069490831FF
:1008A00008603F20091F086000F074FA002855D046
:1008B00065480068654908606348001D0068091DB7
:1008C0000860614808300068091D08605E480C3007
:1008D0000068091D08605C4810300068091D086048
:1008E000594814300068091D0860574818300068DE
:1008F00056492031086054481C300068091D0860C2
:10090000514820300068091D08604F4824300068B5
:10091000091D08604C4828300068091D08604A48D5
:100920002C300068091D086047483030006847498E
:1009300040310860444834300068091D086042486E
:1009400038300068091D08603F483C300068091DC8
:1009500008603D4840300068091D08603748743819
:10096000006840F4700035497439086000BF00BF6A
:1009700000BFBFF34F8F00BF00BF00BF00BF00BF6D
:1009800000BFBFF36F8F00BF00BF00BF30480068DB
:1009900000F0004030B92E48001D006800F0004013
:1009A000002840D001202B49086000BF2A48006879
:1009B0000028FBD015202649086000BF26480068A3
:1009C0000028FBD015212248001D016000BF2248ED
:1009D00000680028FBD000201E49086000BF1E48A8
:1009E00000680028FBD000BF00BF00BF00BF00BFF1
:1009F000BFF34F8F00BF00BF00BF1048F038006842
:100A000000F4E06015490843001D0C49F039086006
:100A100000BF00BF00BFBFF34F8F00BF00BF00BFCC
:100A200000BF00BFFDE7FFF7F9FE10BD0DF0ADBA46
:100A300000C00740440200103C050040FCED00E00F
:100A40000C010040105600400404001020C5004076
:100A50000012001004E5014000E401400000FA0526
:100A600010B50448007F10B100F03AFF01E000F03B
:100A700087FE10BDEC14002002E008C8121F08C158
:100A8000002AFAD170477047002001E001C1121F0F
:100A9000002AFBD17047000000BF00BF00BF00BFAD
:100AA00000BFBFF34F8F00BF00BF00BF0948006801
:100AB00000F4E06008490843001D0649086000BFD3
:100AC00000BF00BFBFF34F8F00BF00BF00BF00BF1C
:100AD00000BFFDE70CED00E00000FA053EB504465E
:100AE000002000900190029002946A46002144F296
:100AF0000100FFF7D1FF3EBD0146024850F821003A
:100B0000704700007C1400200146014840567047A1
:100B1000AC14002070B506460C460AE0304600F0E2
:100B2000CAF905461DB120466968884700E001E022
:100B300000BFF3E700BF70BD2DE9F04782461F48B4
:100B40000068002836D01D480068056800F04EFC9B
:100B500007461B4804682146384600F0D1FCC61CF5
:100B60001848007808B900F047FCAE4201D2284688
:100B700000E03046044424F07F44204600F030FC7E
:100B800000F034FC80463946404600F0B9FC00F1E4
:100B900003093946204600F0B3FC814509D900F02D
:100BA00025FC814600F01CFC2F20FFF76FFC00F0B5
:100BB000AFFD01E000F03EFCBDE8F087080000203A
:100BC0000C00002020000020014614480078144A40
:100BD000127890421DD011480078401C0F4A1070C6
:100BE00010460078022801D1002010700D480B4AF1
:100BF000127850F8220008600B4A08681268104406
:100C0000094A10601046006820F07F401060012003
:100C100070470020086000BFFAE7000018000020BD
:100C200019000020100000200C0000200A48007865
:100C300006280ED10848001D007800F00F0040B9CA
:100C400005480830007800F0F000302801D101207C
:100C500070470020FCE70000E00F00F01348007828
:100C6000062820D11148001D007800F00F00D0B9EF
:100C70000E480830007800F0F000302801D1012043
:100C800070470A480830007800F0F000402801D191
:100C90000120F5E705480830007800F0F000502802
:100CA00001D10120ECE70020EAE70000E00F00F0AE
:100CB0000A48007806280ED10848001D007800F088
:100CC0000F0040B905480830007800F0F0003028E7
:100CD00001D1012070470020FCE70000E00F00F088
:100CE00013480078062820D11148001D007800F034
:100CF0000F00D0B90E480830007800F0F00030281E
:100D000001D1012070470A480830007800F0F00057
:100D1000402801D10120F5E705480830007800F0AF
:100D2000F000502801D10120ECE70020EAE70000A4
:100D3000E00F00F00A48007806280ED10848001D90
:100D4000007800F00F0040B905480830007800F046
:100D5000F000302801D1012070470020FCE700009E
:100D6000E00F00F00A48007806280ED10848001D60
:100D7000007800F00F0040B905480830007800F016
:100D8000F000302801D1012070470020FCE700006E
:100D9000E00F00F00A48007806280ED10848001D30
:100DA000007800F00F0040B905480830007800F0E6
:100DB000F000502801D1012070470020FCE700001E
:100DC000E00F00F0F0B5034600241FE0124E30683B
:100DD00006689E4203D90668F61A06601AE006689D
:100DE0009B1B06683444002606600B4E35680A4F8C
:100DF000C6693E60C66846B10E1926F07F46466059
:100E0000C66886601668C661156000BF0248006843
:100E10000028DBD100BFF0BD0800002070B50546FA
:100E20000C461021284600F09EFA68B14FF48871F4
:100E3000284600F08EFA38B14FF48871284600F049
:100E40008FFA0120216888472021284600F08BFA7C
:100E500068B14FF48A71284600F07BFA38B14FF43C
:100E60008A71284600F07CFA022021688847802198
:100E7000284600F078FA68B14FF48E71284600F0E9
:100E800068FA38B14FF48E71284600F069FA0020F4
:100E9000216888474FF48271284600F05AFA48B119
:100EA0004FF48271284600F05BFA01202071032084
:100EB0002168884770BD0146086808B102680A6069
:100EC000704700002DE9F0412148D0F8008021480A
:100ED00006782FE02048006800EBC604257825E05E
:100EE00005EB4501606800EBC107681CC5B2A0783E
:100EF000A84200D100253878022802D0032812D158
:100F000003E0786800F082FB0EE007E01049086813
:100F1000002101740E4AC169116000BF0C480068CD
:100F20000028F3D100E000BF00BF00BF6078A842F6
:100F3000D6D100BF3000A6F10101CEB2CAD104481B
:100F40000068404502D00120BDE8F0810020FBE7A9
:100F50000800002000000020040000202DE9F047D8
:100F600006463B48D0F800903A48077861E03A4896
:100F7000006800EBC70555E016B13446E66923E08A
:100F80002A7802EB4202696801EBC2002978491C09
:100F900029702978AA78914201D1002129704468EA
:100FA0000178012901D1217C01B13BE081686160B8
:100FB000C168A1600169E1604169A16127490978BF
:100FC00009B10021616000BF254960680968401AC5
:100FD00020F07F402349884208D22149606809688F
:100FE00000F08EFAA1680844206010E01C48616897
:100FF000006800F085FA8046A068404504D9A068E2
:10100000A0EB0800206001E00020206000BF00206D
:101010006060A060012020740020E061204600F0A4
:10102000C1FA00BF002EA7D1287869788842A3D1E1
:1010300000BF3800A7F10101CFB298D10448006881
:10104000484502D00120BDE8F0870020FBE7000002
:1010500008000020000000200400002021000020E3
:101060000C000020FFFF7F000B2000F05BF800BFAA
:10107000002406E0E0B200231A46FF2100F0A2F8A7
:10108000641C642CF6DB00F0ADF84FF47A7000F0CD
:101090003BF8002406E0E0B20023FF22194600F0EE
:1010A00091F8641C642CF6DB00F09CF84FF47A7025
:1010B00000F02AF8002406E0E0B2FF2300221146E7
:1010C00000F080F8641C642CF6DB00F08BF84FF421
:1010D0007A7000F019F8CBE701464FF08040405895
:1010E00008B1012070470020FCE708B500224FF04E
:1010F00080410A500958009100BF08BD01490860AD
:10110000704700000803004001B506E00098401E4B
:10111000009040F2E730FFF77DF900980028F5D104
:1011200008BD0000F0B500BF01210A4600231C469F
:101130001D4641EA420646EA830646EA042646EA96
:1011400005471C4E46F8207000BF00BF00BF81401D
:10115000194A116000BF194908600121174A603A15
:1011600011600021121D1160144A543A11601221BD
:10117000121F11600121114A4C3A11600021121F07
:1011800011600F4A0D4920390A6040F68A12091D84
:101190000A600022091D0A60002105E04FF40042A8
:1011A000074B23F81120491C40F68A129142F5D3CF
:1011B000F0BD0000000700500C05005060C5014064
:1011C0005401002030B500EB4004054D295500EBDB
:1011D00040042C44627000EB40042C44A37030BDEA
:1011E0002800002010B5002076E0002121E000EB6F
:1011F00040023C4B1A4452788A4002F080025AB1B5
:1012000048F20D0200EB4003292404EBC3030B4416
:10121000354C24F813200AE048F2050200EB4003A5
:10122000292404EBC3030B442F4C24F813204A1C3D
:10123000D1B20829DBDB002122E000EB4002294B80
:101240009A5C8A4002F0800262B148F20D0300EB22
:101250004002292404EBC2020A440832224C24F83A
:1012600012300BE048F2050300EB4002292404EBA6
:10127000C2020A4408321C4C24F812304A1CD1B273
:101280000829DADB002123E000EB4002154B1A4469
:1012900092788A4002F0800262B148F20D0300EBBE
:1012A0004002292404EBC2020A4410320E4C24F8F6
:1012B00012300BE048F2050300EB4002292404EB56
:1012C000C2020A441032084C24F812304A1CD1B22F
:1012D0000829D9DB411CC8B2642886D30121034800
:1012E000C16010BD280000205401002000C0014052
:1012F000074A52F8202022F44033054A42F82030B1
:1013000052F8202042EA0143014A42F82030704757
:101310000007005001460148084470470060004043
:1013200038B504462046FFF7F5FF0021016020464E
:10133000FFF7F0FF0068009000BF38BD10B504460D
:101340002046FFF7E7FF0068012800D110BD00200C
:10135000FCE70246505808B1012070470020FCE726
:101360000022425070470246D2F80403084008B1F8
:10137000012070470020FCE70146D1F88004C1F845
:10138000800470470246505808B101207047002081
:10139000FCE7002242507047C0F80813704702462D
:1013A000D2F80403084008B1012070470020FCE790
:1013B0000122425070470146D1F88004C1F88004F0
:1013C00070470246505808B1012070470020FCE7E2
:1013D000002242507047014640F23C50405870474E
:1013E000014908607047000040150140014800684D
:1013F000704700000415014010B54FF480300A49D1
:1014000008600A49C1F804031120FFF77BF9112095
:10141000FFF784F90120054908602F20FFF736F80F
:1014200001200349087010BD441301400010014021
:101430002000002010B51120012181400E4A4309EF
:1014400042F8231000BF4FF480300C4908600C496B
:10145000C1F80803012048602F20FFF717F801208A
:10146000074988600020074908602F20FFF70EF821
:1014700000200549087010BD80E100E048130140DC
:10148000001001400C0000202000002010B5104882
:10149000C07D40B94FF484710E48FFF77AFF00BF5A
:1014A0000D48006810BD4FF484710A48FFF771FFC2
:1014B00000BF09480068C0B20549C968044A527EA5
:1014C00088540348407E401C0149487600BFE9E744
:1014D000EC14002000200040182500407FB5044691
:1014E0000D4601208DF800008DF808400195034855
:1014F00001684268684690477FBD0000EC140020F8
:101500000246501A20F07F407047000070B5044634
:101510000B48006878B10A4AD4E90501126890477F
:10152000054600BF2E4626B100BF3046FFF7D6FA6B
:1015300000BF00BF02E0D4E90510884770BD00007D
:101540001C0000202DE9FC41002001900F48046898
:101550000F4807686846FFF737FB0546FFF7B2FC00
:1015600006462DB101AA21460098FFF72BFC012663
:101570000198FFF7F3FC00B1012616B13846FFF7DA
:10158000DBFA002003490870BDE8FC810C00002054
:10159000080000202100002010B51420FFF7CAF831
:1015A00010BD000010B51849096811B91649086046
:1015B00028E0154A01681268126891420DD8124954
:1015C000096809680268891A0F4A126811600E4991
:1015D0000968C1610C49086014E002680A4C23687C
:1015E000216803E00C68121B0B46C96911B10C6835
:1015F0009442F7D311B10C68A41A0C600260C16167
:10160000D86100BF10BD00000800002030B50246C0
:10161000154C2168084604E0904200D103E00146E1
:10162000C0690028F8D100BF00B930BD814210D197
:101630000D4C2468E4690C4D2C602C46246844B998
:1016400001240A4DAC600024094D2C600124094D91
:101650002C700368C469CC61C86910B104681C446B
:10166000046000BFE1E70000080000200010014016
:101670000C000020210000202DE9F0411F480068E7
:10168000002838D00027FFF7B1FE80461C480168CB
:101690004046FFF735FF06461848056810E0286801
:1016A000B04200D90EE02868361A286807442C4654
:1016B000ED69207C20B1002020742046FFF726FF32
:1016C000002DECD100BF0F4800780F4909788842FF
:1016D00009D10D480078401CC0B20B49087002289F
:1016E00001D10020087009480749097840F82170A5
:1016F000FFF752FF00BFBDE8F081000008000020A6
:101700000C0000201800002019000020100000200C
:1017100010B51120FFF70EF810BD000010B54FF402
:101720008E710948FFF735FE084880680749898AA5
:10173000445C0648808A401C04498882204604494B
:10174000086000BF10BD000000200040EC14002025
:101750001C2500401FB5044600208DF800008DF8C0
:1017600008400648806801900020044988750846B2
:1017700001684268684690471FBD0000EC140020D5
:101780007FB54FF400715448FFF709FE68B34FF47A
:1017900092715148FFF7F6FD38B34FF492714E48FD
:1017A000FFF7F7FD4FF401714B48FFF7F5FD4B488C
:1017B000807E18B904214848FFF7FAFD02208DF811
:1017C00000004548FFF7D8FD03904448C17D8DF8DF
:1017D0000810C068019000204049C8750876084686
:1017E00001684268684690473CE004213A48FFF7A8
:1017F000D6FD002836D04FF484713748FFF7C2FD7C
:1018000000282FD0FFF742FE3448C07D3349497E7F
:10181000884227D13148007E80B13048C468457E77
:10182000007E2E49C87508460069C8600020087609
:10183000487621462846FFF751FE13E02748807E70
:1018400018B904212448FFF7B3FD4FF40171224871
:10185000FFF7A2FD00202149C8750A46D168507ED5
:10186000FFF73CFE4FF48E711B48FFF78BFDA0B1D4
:101870001A48808A1949897D884202DAFFF74EFFAB
:101880000BE04FF48E711448FFF783FD1348807D01
:1018900018B11249887DFFF75DFF4FF4A2710E4821
:1018A000FFF770FDB0B14FF4A2710B48FFF771FD67
:1018B0000A48807E18B100210748FFF779FD0748E4
:1018C000C07D38B100200549C8750A46D168507EF0
:1018D000FFF704FE7FBD000000200040EC14002054
:1018E0007FB54FF492714648FFF76BFDF0B14FF4AE
:1018F00092714348FFF76CFD02208DF800004048CC
:10190000FFF759FD03903E48FFF765FDC1B28DF822
:1019100008103C48C068019000203A49C875087614
:101920000846016842686846904737E04FF488717E
:101930003348FFF746FD002830D04FF48871304817
:10194000FFF746FD2E48FFF746FDC4B22D48C07D87
:10195000A04222D12B48007EB8B12A48C568202079
:10196000294909688143264AC2F8001200BF254868
:10197000007E2449C87508460069C86000200876C2
:1019800029462046FFF7AAFD07E000201D49C8753B
:101990000846C1682046FFF7A1FD00BF4FF4A271C1
:1019A0001748FFF70EFD98B14FF4A2711448FFF7E6
:1019B0000FFD1448C07D58B100201249C875104869
:1019C000FFF709FDC4B20F48C1682046FFF786FD46
:1019D0004FF490710A48FFF7F4FC78B14FF490711E
:1019E0000748FFF7F5FC0748807D38B1044840F20E
:1019F0004C510958CCB22046FFF7ACFE7FBD000029
:101A000000200040EC140020002200402C1A0000AE
:101A10000000002028000000780A0000541A00008E
:101A200028000020E8340000880A000000000000C0
:101A300000000000000000000000000000000000A6
:101A40000000000000000000000000000000000096
:041A50000090D0032F
:0400000500000401F2
:00000001FF
